{
    "_format": "hh-sol-artifact-1",
    "contractName": "TokenizedBallot",
    "sourceName": "contracts/TokenizedBallot.sol",
    "abi": [
        {
            "inputs": [
                {
                    "internalType": "bytes32[]",
                    "name": "proposalNames",
                    "type": "bytes32[]"
                },
                {
                    "internalType": "address",
                    "name": "_tokenContract",
                    "type": "address"
                },
                {
                    "internalType": "uint256",
                    "name": "_targetBlockNumber",
                    "type": "uint256"
                }
            ],
            "stateMutability": "nonpayable",
            "type": "constructor"
        },
        {
            "inputs": [
                {
                    "internalType": "uint256",
                    "name": "",
                    "type": "uint256"
                }
            ],
            "name": "proposals",
            "outputs": [
                {
                    "internalType": "bytes32",
                    "name": "name",
                    "type": "bytes32"
                },
                {
                    "internalType": "uint256",
                    "name": "voteCount",
                    "type": "uint256"
                }
            ],
            "stateMutability": "view",
            "type": "function"
        },
        {
            "inputs": [],
            "name": "targetBlockNumber",
            "outputs": [
                {
                    "internalType": "uint256",
                    "name": "",
                    "type": "uint256"
                }
            ],
            "stateMutability": "view",
            "type": "function"
        },
        {
            "inputs": [],
            "name": "tokenContract",
            "outputs": [
                {
                    "internalType": "contract IMyVotingToken",
                    "name": "",
                    "type": "address"
                }
            ],
            "stateMutability": "view",
            "type": "function"
        },
        {
            "inputs": [
                {
                    "internalType": "uint256",
                    "name": "proposal",
                    "type": "uint256"
                },
                {
                    "internalType": "uint256",
                    "name": "amount",
                    "type": "uint256"
                }
            ],
            "name": "vote",
            "outputs": [],
            "stateMutability": "nonpayable",
            "type": "function"
        },
        {
            "inputs": [
                {
                    "internalType": "address",
                    "name": "",
                    "type": "address"
                }
            ],
            "name": "votingPowerSpent",
            "outputs": [
                {
                    "internalType": "uint256",
                    "name": "",
                    "type": "uint256"
                }
            ],
            "stateMutability": "view",
            "type": "function"
        },
        {
            "inputs": [],
            "name": "winnerName",
            "outputs": [
                {
                    "internalType": "bytes32",
                    "name": "winnerName_",
                    "type": "bytes32"
                }
            ],
            "stateMutability": "view",
            "type": "function"
        },
        {
            "inputs": [],
            "name": "winningProposal",
            "outputs": [
                {
                    "internalType": "uint256",
                    "name": "winningProposal_",
                    "type": "uint256"
                }
            ],
            "stateMutability": "view",
            "type": "function"
        }
    ],
    "bytecode": "0x60806040523480156200001157600080fd5b5060405162000d9038038062000d90833981810160405281019062000037919062000383565b816000806101000a81548173ffffffffffffffffffffffffffffffffffffffff021916908373ffffffffffffffffffffffffffffffffffffffff1602179055508060028190555060005b8351811015620001155760016040518060400160405280868481518110620000ae57620000ad620003fe565b5b60200260200101518152602001600081525090806001815401808255809150506001900390600052602060002090600202016000909190919091506000820151816000015560208201518160010155505080806200010c906200045c565b91505062000081565b50505050620004a9565b6000604051905090565b600080fd5b600080fd5b600080fd5b6000601f19601f8301169050919050565b7f4e487b7100000000000000000000000000000000000000000000000000000000600052604160045260246000fd5b620001838262000138565b810181811067ffffffffffffffff82111715620001a557620001a462000149565b5b80604052505050565b6000620001ba6200011f565b9050620001c8828262000178565b919050565b600067ffffffffffffffff821115620001eb57620001ea62000149565b5b602082029050602081019050919050565b600080fd5b6000819050919050565b620002168162000201565b81146200022257600080fd5b50565b60008151905062000236816200020b565b92915050565b6000620002536200024d84620001cd565b620001ae565b90508083825260208201905060208402830185811115620002795762000278620001fc565b5b835b81811015620002a6578062000291888262000225565b8452602084019350506020810190506200027b565b5050509392505050565b600082601f830112620002c857620002c762000133565b5b8151620002da8482602086016200023c565b91505092915050565b600073ffffffffffffffffffffffffffffffffffffffff82169050919050565b60006200031082620002e3565b9050919050565b620003228162000303565b81146200032e57600080fd5b50565b600081519050620003428162000317565b92915050565b6000819050919050565b6200035d8162000348565b81146200036957600080fd5b50565b6000815190506200037d8162000352565b92915050565b6000806000606084860312156200039f576200039e62000129565b5b600084015167ffffffffffffffff811115620003c057620003bf6200012e565b5b620003ce86828701620002b0565b9350506020620003e18682870162000331565b9250506040620003f4868287016200036c565b9150509250925092565b7f4e487b7100000000000000000000000000000000000000000000000000000000600052603260045260246000fd5b7f4e487b7100000000000000000000000000000000000000000000000000000000600052601160045260246000fd5b6000620004698262000348565b91507fffffffffffffffffffffffffffffffffffffffffffffffffffffffffffffffff82036200049e576200049d6200042d565b5b600182019050919050565b6108d780620004b96000396000f3fe608060405234801561001057600080fd5b506004361061007d5760003560e01c8063609ff1bd1161005b578063609ff1bd146100ef578063a72003511461010d578063b384abef1461013d578063e2ba53f0146101595761007d565b8063013cf08b146100825780632a8cd29e146100b357806355a373d6146100d1575b600080fd5b61009c600480360381019061009791906104b1565b610177565b6040516100aa929190610506565b60405180910390f35b6100bb6101ab565b6040516100c8919061052f565b60405180910390f35b6100d96101b1565b6040516100e691906105c9565b60405180910390f35b6100f76101d5565b604051610104919061052f565b60405180910390f35b61012760048036038101906101229190610622565b61025d565b604051610134919061052f565b60405180910390f35b6101576004803603810190610152919061064f565b610275565b005b610161610442565b60405161016e919061068f565b60405180910390f35b6001818154811061018757600080fd5b90600052602060002090600202016000915090508060000154908060010154905082565b60025481565b60008054906101000a900473ffffffffffffffffffffffffffffffffffffffff1681565b6000806000905060005b600180549050811015610258578160018281548110610201576102006106aa565b5b9060005260206000209060020201600101541115610245576001818154811061022d5761022c6106aa565b5b90600052602060002090600202016001015491508092505b808061025090610708565b9150506101df565b505090565b60036020528060005260406000206000915090505481565b60008060009054906101000a900473ffffffffffffffffffffffffffffffffffffffff1673ffffffffffffffffffffffffffffffffffffffff16633a46b1a8336002546040518363ffffffff1660e01b81526004016102d592919061075f565b602060405180830381865afa1580156102f2573d6000803e3d6000fd5b505050506040513d601f19601f82011682018060405250810190610316919061079d565b9050600082600360003373ffffffffffffffffffffffffffffffffffffffff1673ffffffffffffffffffffffffffffffffffffffff1681526020019081526020016000205461036591906107ca565b9050818111156103aa576040517f08c379a00000000000000000000000000000000000000000000000000000000081526004016103a190610881565b60405180910390fd5b82600360003373ffffffffffffffffffffffffffffffffffffffff1673ffffffffffffffffffffffffffffffffffffffff16815260200190815260200160002060008282546103f991906107ca565b925050819055508260018581548110610415576104146106aa565b5b9060005260206000209060020201600101600082825461043591906107ca565b9250508190555050505050565b6000600161044e6101d5565b8154811061045f5761045e6106aa565b5b906000526020600020906002020160000154905090565b600080fd5b6000819050919050565b61048e8161047b565b811461049957600080fd5b50565b6000813590506104ab81610485565b92915050565b6000602082840312156104c7576104c6610476565b5b60006104d58482850161049c565b91505092915050565b6000819050919050565b6104f1816104de565b82525050565b6105008161047b565b82525050565b600060408201905061051b60008301856104e8565b61052860208301846104f7565b9392505050565b600060208201905061054460008301846104f7565b92915050565b600073ffffffffffffffffffffffffffffffffffffffff82169050919050565b6000819050919050565b600061058f61058a6105858461054a565b61056a565b61054a565b9050919050565b60006105a182610574565b9050919050565b60006105b382610596565b9050919050565b6105c3816105a8565b82525050565b60006020820190506105de60008301846105ba565b92915050565b60006105ef8261054a565b9050919050565b6105ff816105e4565b811461060a57600080fd5b50565b60008135905061061c816105f6565b92915050565b60006020828403121561063857610637610476565b5b60006106468482850161060d565b91505092915050565b6000806040838503121561066657610665610476565b5b60006106748582860161049c565b92505060206106858582860161049c565b9150509250929050565b60006020820190506106a460008301846104e8565b92915050565b7f4e487b7100000000000000000000000000000000000000000000000000000000600052603260045260246000fd5b7f4e487b7100000000000000000000000000000000000000000000000000000000600052601160045260246000fd5b60006107138261047b565b91507fffffffffffffffffffffffffffffffffffffffffffffffffffffffffffffffff8203610745576107446106d9565b5b600182019050919050565b610759816105e4565b82525050565b60006040820190506107746000830185610750565b61078160208301846104f7565b9392505050565b60008151905061079781610485565b92915050565b6000602082840312156107b3576107b2610476565b5b60006107c184828501610788565b91505092915050565b60006107d58261047b565b91506107e08361047b565b92508282019050808211156107f8576107f76106d9565b5b92915050565b600082825260208201905092915050565b7f566f746520616d6f756e742074616b657320766f746572206f76657220616c6c60008201527f6f636174696f6e00000000000000000000000000000000000000000000000000602082015250565b600061086b6027836107fe565b91506108768261080f565b604082019050919050565b6000602082019050818103600083015261089a8161085e565b905091905056fea2646970667358221220eff3f999439550cdc005c3ac7b0074b39741631cc65be0a790109282e02f65ce64736f6c63430008120033",
    "linkReferences": {},
    "deployedLinkReferences": {}
}